:020000040800F2
:10000000A0070020BD010008C5010008C7010008C5
:10001000C9010008CB010008CD0100080000000064
:10002000000000000000000000000000CF010008F8
:10003000D101000800000000D3010008D50100082C
:10004000D7010008D7010008D7010008D701000830
:10005000D7010008D7010008D7010008D701000820
:10006000D7010008D7010008D7010008D701000810
:10007000D7010008D7010008D7010008D701000800
:10008000D7010008D7010008D701000800000000D0
:10009000000000000000000000000000C90300088C
:1000A000D7010008D7010008D7010008D7010008D0
:1000B000D7010008D7010008D7010008D7010008C0
:1000C000D7010008D7010008D7010008D7010008B0
:1000D000D701000819160008D7010008D701000849
:1000E000D7010008D7010008D70100080000000070
:1000F0000000000000000000000000000000000000
:1001000000000000000000000000000000000000EF
:100110000000000000000000E5140008D7010008FE
:1001200000F002F800F03AF80AA090E8000C8244CF
:100130008344AAF10107DA4501D100F02FF8AFF2AC
:10014000090EBAE80F0013F0010F18BFFB1A43F0B5
:1001500001031847781C0000981C0000103A24BFC7
:1001600078C878C1FAD8520724BF30C830C144BF1C
:1001700004680C607047000000230024002500265E
:10018000103A28BF78C1FBD8520728BF30C148BFFA
:100190000B6070471FB51FBD10B510BD00F031F8E2
:1001A0001146FFF7F7FF01F0B5FB00F04FF803B47D
:1001B000FFF7F2FF03BC00F057F800000948804742
:1001C00009480047FEE7FEE7FEE7FEE7FEE7FEE739
:1001D000FEE7FEE7FEE7FEE704480549054A064B51
:1001E000704700008114000821010008A0010020D0
:1001F000A0070020A0030020A00300207047704744
:100200007047754600F02CF8AE4605006946534627
:1002100020F00700854618B020B5FFF7DDFFBDE8E8
:1002200020404FF000064FF000074FF000084FF05D
:10023000000B21F00701AC46ACE8C009ACE8C009EE
:10024000ACE8C009ACE8C0098D46704710B504465B
:10025000AFF300802046BDE81040FFF7A8BF0000C4
:10026000004870473C01002001491820ABBEFEE762
:1002700026000200704700002DE9F04107460C46B9
:1002800015461E4601F0ECFA082837DB01F0E8FAC3
:10029000804641461A4801F0FDFC1948407807287D
:1002A0002BD2DFE800F02A04090E131825003221B2
:1002B000144801F005FD20E03221384601F000FD30
:1002C0001BE03221204601F0FBFC16E032212846DB
:1002D00001F0F6FC11E00C480C49086000F0EEFE5D
:1002E0000A49096808603221074801F0E9FC04E086
:1002F0003221304601F0E4FC00BF00BFBDE8F081D0
:10030000640000206C0000207200002078000020B3
:1003100070B504460D464FF48071254800F08DFEFF
:1003200078B900202349087020B2234908800020B2
:10033000224908804FF480711D4800F07EFE20495C
:1003400008804FF400611F4800F077FE1C49B1F9A6
:100350000010884229D017480078012818D121B20E
:100360001548B0F9000001F064FAA8420CDD002045
:1003700010490870114908804FF40061114800F0DD
:100380005CFE0F49088010E001200C4908800CE059
:1003900020B2094908804FF400610A4800F04DFE80
:1003A000074908800120034908700448007870BD9F
:1003B0000008014096000020980000209A000020CC
:1003C0009C000020001001407047000070B54021E3
:1003D000204800F032FE05464FF400411E4800F070
:1003E0002CFE45EA4000C4B2032020EA04041B4866
:1003F000007820B1012810D0022829D118E018482F
:100400000078844208D01648047000F051FE154967
:1004100008800120114908701AE000F049FE1149D6
:100420000988401A032802DD02200C4908700FE0F9
:100430000B480078844205D10220084908700A4818
:10044000047004E00020054908700748047000BFEC
:1004500000BF70BD000C0140000801405F0000209B
:100460005E0000205A0000205800002010B504460D
:10047000042000F011FE90B1207A00F0400028B175
:10048000012208210F4800F0EFFD04E001221021B5
:100490000C4800F0E9FD00F00BFE0B49088000F06D
:1004A00007FE09490988401A80B23C2809DD00226C
:1004B0000821044800F0D8FD00221021014800F076
:1004C000D3FD10BD000C01404C00002010B54FF4CE
:1004D00080711A4800F0B1FD04461948007820B137
:1004E00001280ED0022827D116E0002C08DD15487F
:1004F000047000F0DDFD14490880012010490870E7
:100500001AE000F0D5FD10490988401A032802DDE1
:1005100002200B4908700FE00A480078844205D198
:100520000220074908700948047004E000200449CB
:1005300008700648047000BF00BF10BD000C0140E9
:1005400061000020600000205C00002059000020B5
:10055000827802F0100212B101220A7001E000223A
:100560000A70827802F00A023AB1044A127822B97B
:1005700004224A700122014B1A7070475600002075
:1005800070B504460D462A480078012802D002289A
:100590003DD11DE0A07818B101202549087036E052
:1005A000207818B102202249087010E0607918B153
:1005B00001201F4908702AE0204600F033FE30B1C8
:1005C00002201B49087000F073FD1A4908801EE0E4
:1005D000A07818B101201649087018E0207818B1E9
:1005E00002201349087012E0607918B10120104907
:1005F00008700CE000F05CFD0E490988401A80B2DA
:100600006978884202DD01200949087000BF00BFF7
:1006100007480078022805D101221146064800F05B
:1006200023FD04E000220121034800F01DFD70BD00
:100630003E000020400000200008014070B5064642
:100640000D4614463E480078062876D2DFE800F0D2
:1006500003121A245266012000F01EFD48B100F07A
:1006600015FD082802D101203549087000203549C0
:10067000087062E081206071E08810B1022030498A
:1006800008705AE0E08830B903202D49087000F066
:100690000FFD2D49088050E000F00AFD2A49098825
:1006A000401A80B2C82824DDE08818B1022024490D
:1006B000087042E00120607100F0FAFC23490880D4
:1006C0002048007808B93088E8801E480078012862
:1006D00001D1308828811B480078022801D1308858
:1006E000688118480078401C164908700420144995
:1006F000087022E000F0DCFC14490988401A80B23E
:10070000C8280ADD0F480078032803DA01200C49C5
:10071000087002E005200A4908700EE000F0C0FBF6
:100720000B4800F097FB14220949284600F0C4FB4F
:10073000002060710249087000BF00BF70BD00005A
:100740004600002047000020480000204A0000200A
:1007500000FC010870B504460025584800780128BF
:1007600002D002285ED128E0A07820B101205349B0
:1007700008700A2520E0207808B9607918B10220B5
:100780004E49087018E02079A8B101204B49087043
:10079000207900F0010010B145F0020501E045F0BC
:1007A0000105207900F0020010B145F0080503E0D2
:1007B00045F0040500E0052534E0207848B14048C4
:1007C0000078052805D005203E4908703C4908708E
:1007D00021E06079E0B1607900F08100812808D1E2
:1007E00037480078062804D0062036490870344976
:1007F0000870607900F0810001280CD13048007841
:10080000052808D005202F4908702D49087002E0FE
:1008100001202A4908702A4800782A49097800EA04
:10082000010500BF00BF00F043FC27490988401ABA
:1008300080B23C2809DD2348007880F00F00214970
:10084000087000F035FC2049088005F0010028B14F
:10085000012210211D4800F007FC04E000221021B5
:100860001A4800F001FC05F0020028B10122202105
:10087000164800F0F9FB04E000222021134800F0A4
:10088000F3FB05F0040028B1012240210F4800F0DD
:10089000EBFB04E0002240210C4800F0E5FB05F0F2
:1008A000080028B101228021084800F0DDFB04E0A7
:1008B00000228021054800F0D7FB70BD3B000020DE
:1008C0003A000020390000203C00002000080140D0
:1008D0002DE9FE430746884614463A8811B2E2885D
:1008E00010B200F0A6FF2179884206DAE08800B253
:1008F0006A49088000206A4908803A8811B2228932
:1009000010B200F096FF2179884206DA208900B201
:10091000624908800020624908803A8811B26289E1
:1009200010B200F086FF2179884206DA608900B2B1
:100930005A49088000205A490880388801B257482F
:10094000B0F9000000F075FF0646B6F5AB7F35DB69
:100950003A8811B2E28810B200F06BFF02903A8838
:1009600011B2228910B200F064FF01903A8811B2EE
:10097000628910B200F05DFF0090BDF90800BDF97A
:100980000410884201DD01A800E002A88146B9F9FF
:100990000000BDF90010884201DD684600E04846CD
:1009A0008146E08800B20290208900B201906089FF
:1009B00000B20090B9F80000384908803948B0F911
:1009C000000040F25911081AB04201DA07253FE051
:1009D0003448B0F90000C0F5AC70B04201DA062529
:1009E00036E03048B0F90000C0F5A070B04201DA3E
:1009F00005252DE02B48B0F90000C0F59B70B042F2
:100A000001DA042524E02748B0F90000C0F1820093
:100A1000B04201DA03251BE02248B0F90000C0F122
:100A20001E00B04201DA022512E01E48B0F90000B3
:100A3000C0F10800B04201DA012509E02079194926
:100A4000B1F90010401AB04201DA002500E000BF01
:100A50001548B0F90000854211D114480088401CA7
:100A600000B212490880084600880A2814D10020E4
:100A70000C4908800D490880A8F804500CE00A4889
:100A8000B0F90000A84202DD0220064908800648AD
:100A90000580002005490880BDE8FE839E000020F7
:100AA000A0000020A2000020A6000020A40000203A
:100AB000C17801F0070181B1017941F001010171B3
:100AC000C17801F0040161B1C17801F0300141B198
:100AD000017921F00101017103E0017921F00101A7
:100AE0000171C17801F0700181B1017941F0020119
:100AF0000171C17801F0400161B1C17801F00301D9
:100B000041B1017921F00201017103E0017921F085
:100B1000020101717047000070B505460C4600F0F7
:100B2000C7FA11490988401A80B201281BDD2888BC
:100B30000E490988401A00B2E080B4F90600002886
:100B400003DAE088404200B2E080B4F906000328EE
:100B500002DA0020E08002E028880449088000F0E2
:100B6000A7FA0149088070BD44000020420000201F
:100B700070B504460D4600F083FA10B10120A07054
:100B800070BD00F077FA012804D002280BD00328AA
:100B900017D111E0E07840F00200E070E07820F03A
:100BA0002000E07012E0E07840F02000E070E07893
:100BB00020F00200E07009E0E07840F02200E070F0
:100BC00000BFE07820F02200E07000BF00BF0120ED
:100BD00000F062FAA8B300F059FA012806D0032801
:100BE00017D004281AD0062831D12BE0E07800F085
:100BF000040018B9E07880F00100E070E07820F09F
:100C00001600E0700020A07000F052FA1C49088025
:100C10001DE0E07880F00400E07018E0E07800F07B
:100C2000400018B9E07880F01000E070E07820F023
:100C30006100E0700020A07000F03AFA10490880CE
:100C400005E005E0E07880F04000E07000BF00BF04
:100C5000042000F021FA18B1E07820F01100E070D3
:100C600000F026FA06490988401A80B2698888424D
:100C700003DDE07820F01100E07000BF80E70000A5
:100C8000300000202DE9F04107460C461546287A31
:100C900000F0800028813A8811B2E28810B200F09A
:100CA000B2FD2179884212DA3A8811B2E28810B294
:100CB00000F0A9FD21794942884208DDE08800B2B0
:100CC00060490880002060490870BDE8F0813A88DA
:100CD00011B2228910B200F096FD2179884211DA12
:100CE0003A8811B2228910B200F08DFD2179494273
:100CF000884207DD208900B252490880002052490D
:100D00000870E2E73A8811B2628910B200F07BFD08
:100D10002179884211DA3A8811B2628910B200F062
:100D200072FD21794942884207DD608900B2454958
:100D30000880002044490870C7E7388801B243485A
:100D4000B0F9000000F05FFD06461E2E01DDB87808
:100D50006881388800B23D490880388801B23C4833
:100D6000B0F9000000F04FFD064616F1040F08DA56
:100D7000B5F9080040F080002881388800B2344975
:100D80000880042E07DD287A00F07F00288138884B
:100D900000B22F490880388801B22A48B0F9000013
:100DA00000F031FD0646002E04DAB5F9080040F0E7
:100DB000400028816079B04203DB60794042B04254
:100DC00008DD2148007828B9042000F0F3FA01205A
:100DD0001D490870208AB04203DB208A4042B0429D
:100DE00005DDB5F9080040F0080028816DE7E089CD
:100DF000B04203DBE0894042B04205DDB5F90800AE
:100E000040F00400288160E7A089B04203DBA0899C
:100E10004042B04205DDB5F9080040F002002881EB
:100E200053E72079B04203DB20794042B04205DD30
:100E3000B5F9080040F00100288146E7002028812C
:100E400000BF42E7320000203800002036000020BA
:100E5000340000200C49096941F002010A4A11617D
:100E600011464861096941F04001116100BF06491E
:100E7000C96801F020010029F9D00349096921F06E
:100E80000201014A116170470020024010B503467B
:100E9000002002E00C5C1C54401C9042FAD310BDB0
:100EA000024803494860034848607047230167458A
:100EB00000200240AB89EFCD30B5034600BF184C8F
:100EC000E46804F00104002CF9D1154CE46804F046
:100ED000200414B12024124DEC60114C246944F01C
:100EE00001040F4D2C61002010E01D5C441C1C5DB2
:100EF00005EB04240C5200BF094CE46804F0200404
:100F0000002CF9D02024064DEC60801C9042ECD3DC
:100F1000034C246924F00104014D2C6130BD000014
:100F2000002002402DE9F041024600250026002065
:100F300000230024002791F803C00CF00F0591F85E
:100F400003C00CF0100CBCF1000F03D091F802C0EC
:100F50004CEA050591F800C0BCF1000F31D01468CF
:100F600000202BE04FF0010C0CFA00F3B1F800C0A8
:100F70000CEA03069E4220D183004FF00F0C0CFABE
:100F800003F7BC4305FA03FC4CEA040491F803C0E0
:100F9000BCF1280F06D14FF0010C0CFA00FCC2F88E
:100FA00014C00AE091F803C0BCF1480F05D14FF01E
:100FB000010C0CFA00FCC2F810C0401C0828D1D368
:100FC0001460B1F800C0BCF1FF0F34DD546800209C
:100FD0002EE000F1080C4FF0010808FA0CF3B1F80C
:100FE00000C00CEA03069E4221D183004FF00F0C93
:100FF0000CFA03F7BC4305FA03FC4CEA040491F82D
:1010000003C0BCF1280F05D100F1080C08FA0CF858
:10101000C2F8148091F803C0BCF1480F07D100F169
:10102000080C4FF0010808FA0CF8C2F81080401CB8
:101030000828CED35460BDE8F081024600209368B2
:101040000B400BB1012000E0002070470146C8684A
:1010500080B270474FF6FF71018002218170042138
:10106000C1707047C16070470AB1016100E0416121
:1010700070470000014800787047000058000020C9
:1010800001480078704700005900002001480078AE
:10109000704700002A00002001460448405C0228F6
:1010A00001D1012070470020FCE70000E60000208D
:1010B00001480088704700001C00002001480068BB
:1010C000704700008C000020002004E00021034A4B
:1010D0001154411CC8B20A28F8DB7047E600002012
:1010E0000EB50121102000F0DBF8684600F08AFA06
:1010F00045F6C050ADF800000820ADF80400694680
:101100000D4800F02DFA01210B4800F002FA3620BC
:10111000002809DB00F01F020121914042099200E2
:1011200002F1E022C2F8001100BF0122114602487C
:1011300000F00CFA0EBD00000010004010B50421B4
:101140003248FFF77AFFC4004FF480513048FFF770
:1011500074FF44EA80044FF400612D48FFF76DFFEF
:1011600044EA40044FF480712948FFF766FF0443C6
:1011700028490C70084601780F20884325490870DB
:101180002548007830B1012814D002281DD003284A
:1011900039D12BE01F48007800280ADD1D4800786F
:1011A0001E490870FFF784FF1D49088001201A4975
:1011B000087028E0FFF77CFF19490988401A0328C6
:1011C00002DD0220144908701DE01248007813491E
:1011D0000978884206D1012000F0ECF803200E497E
:1011E000087002E000200C4908700CE00948007803
:1011F0000A490978884203D103200749087002E0B0
:1012000000200549087000BF10BD00000014014017
:10121000000801402A0000202C0000202B000020A4
:101220002E000020014600200A7922B1012A08D0B0
:10123000022A1BD110E00A7A02F0030202B1012057
:1012400014E00A7A02F0C002C02A04D10A7A02F03D
:10125000070202B1012009E00A7A02F0C00222B9B5
:101260000A7A02F0070202B1012000BF00BF7047F6
:1012700000200FE00949095C022902D10021074A38
:1012800011540649095C012902D10221034A115473
:10129000411CC8B20A28EDDB70470000E6000020C0
:1012A00029B1064AD2690243044BDA6104E0034AD9
:1012B000D2698243014BDA6170470000001002409E
:1012C00029B1064A92690243044B9A6104E0034A39
:1012D00092698243014B9A617047000000100240FE
:1012E00070B5002100230024002200252C4E7668D2
:1012F00006F00C0121B1042905D0082921D105E00F
:10130000284E066020E0274E06601DE0244E7668D9
:1013100006F47013224E766806F48034022606EB3B
:1013200093431CB9204E5E43066009E01C4EF66AEA
:1013300006F00F06751C1B4EB6FBF5F65E43066005
:1013400002E0184E066000BF00BF154E766806F03A
:10135000F0010909154E725C0668D6404660104ED1
:10136000766806F4E061090A104E725C4668D64061
:1013700086600B4E766806F46051C90A0B4E725CAB
:101380004668D640C660064E766806F44041890B32
:10139000074E725CC668B6FBF2F6066170BD0000CF
:1013A0000010024000127A0000093D00A800002051
:1013B000B80000200121014A11547047E6000020C6
:1013C00010B500F001F810BD0CB5002001900090A0
:1013D0002A48006840F480302849086000BF274848
:1013E000006800F4003000900198401C01900098C3
:1013F00018B90198B0F5A06FF1D12048006800F449
:10140000003010B10120009001E000200090009811
:10141000012831D119484068184948600846406899
:1014200048600846406848600846406820F47C10E0
:1014300048600846406840F49810486008460068D4
:1014400040F08070086000BF0C48006800F0007039
:101450000028F9D00948406820F003000749486097
:101460000846406840F00200486000BF03484068FA
:1014700000F00C000828F9D10CBD0000001002405B
:1014800010B51448006840F0010012490860084691
:101490004068114908400F494860084600680F49F4
:1014A00008400C4908600846006820F48020086065
:1014B0000846406820F4FE0048604FF41F00886032
:1014C0000020C862FFF77CFF4FF00060044908600D
:1014D00010BD0000001002400000FFF8FFFFF6FE04
:1014E00008ED00E010B50121064800F01EF840B1FB
:1014F0000121044800F00AF803480088401C024912
:10150000088010BD001000401C000020CA43028269
:10151000704721B1028842F00102028004E0028893
:101520004FF6FE731A400280704730B50246002025
:1015300000230024158A05EA0103958905EA0104C0
:1015400013B10CB1012000E0002030BD1AB1838935
:101550000B43838102E083898B43838170470000C2
:10156000002202881D4B98420ED01D4B98420BD092
:10157000B0F1804F08D01B4B984205D01A4B9842CF
:1015800002D01A4B984204D14FF68F731A404B8801
:101590001A43174B984207D0164B984204D04FF687
:1015A000FF431A40CB881A4302808B8883850B88BF
:1015B00003850A4B98420BD0094B984208D00E4B3A
:1015C000984205D00D4B984202D00D4B984201D164
:1015D0000B7A03860123838270470000002C0140B0
:1015E000003401400004004000080040000C0040AE
:1015F0000010004000140040004001400044014041
:10160000004801404FF6FF71818000210180C180B8
:10161000418001727047000010B540F22551084822
:1016200000F02DF858B1064800F0E4F80549064AE4
:101630001278885404480078401C0349087010BD93
:1016400000380140000100206200002021B18289A1
:1016500042F40052828104E082894DF6FF731A4001
:101660008281704702460020B1F5007F00D100BFA3
:1016700013880B400BB1012000E00020704770B5CB
:101680000246002400230025002040F66A16B142DD
:1016900000D100BFC1F3421501F01F03012606FA75
:1016A00003F3012D02D19689334006E0022D02D1C9
:1016B000168A334001E0968A33400C12012606FA5E
:1016C00004F41688344013B10CB1012000E000206E
:1016D00070BDF0B50346002400260025002040F62A
:1016E0006A17B94200D100BF1846C1F3421401F095
:1016F0001F06012707FA06F5012C01D10C3004E082
:10170000022C01D1103000E014301AB107682F43C9
:10171000076002E00768AF430760F0BD2DE9F047BE
:1017200086B005460E460024A24600BFA14600270B
:10173000B08900B100BF2F462C8A4CF6FF700440E0
:10174000F08804432C82AC894EF6F3100440B08834
:1017500031890843718908430443AC81AC8A4FF650
:10176000FF400440B0890443AC8201A8FFF7B8FDF4
:101770001F48874202D1DDF810A001E0DDF80CA07F
:10178000A88900F4004040B10AEBCA0000EB0A103F
:1017900031684900B0FBF1F807E00AEBCA0000EB42
:1017A0000A1031688900B0FBF1F86420B8FBF0F052
:1017B00004012009642101FB1089A88900F400407C
:1017C00040B1322000EBC900B0FBF1F000F007009F
:1017D000044308E0322000EB09106421B0FBF1F073
:1017E00000F00F0004432C8106B0BDE8F087000034
:1017F0000038014001468888C0F308007047C1F3F3
:101800000802828070470246881AB0F5007F04DD26
:10181000881AA0F5806000B27047881A10F5007F22
:1018200004DA881A00F5806000B2F5E7881A00B281
:10183000F2E702460B46981A01B2002901DA484243
:1018400001B2B1F5007F03DDC1F5806000B27047E1
:101850000846FCE700E0401E0028FCD1704700006D
:1018600001480078704700006200002008B54FF47E
:10187000F860ADF8000003208DF8020014208DF808
:10188000030069460848FFF74DFB4FF40060ADF8D0
:10189000000003208DF8020004208DF80300694643
:1018A0000148FFF73FFB08BD0010014010B504469A
:1018B0000220A0704820E0704FF4004020802146B4
:1018C0001348FFF72FFB0220A0701420E0704FF4A4
:1018D0008040208021460E48FFF724FB0220A070A4
:1018E0001420E0704FF40050208021460848FFF794
:1018F00019FB012251030648FFF7B6FB01229103B1
:101900000348FFF7B1FB42F21070FFF7A3FF10BDD1
:10191000000C014008B57F48806940F001007D4916
:1019200088617D48406840F000707B494860012133
:101930003C20FFF7C5FC6846FFF78CFB02208DF8C2
:10194000020010208DF803004FF44070ADF8000045
:1019500069467248FFF7E6FA10208DF803001F2051
:10196000ADF8000069466E48FFF7DCFA48208DF8B4
:1019700003004FF41940ADF8000069466948FFF7CD
:10198000D1FA48208DF803004FF47070ADF80000D4
:1019900069466348FFF7C6FA48208DF80300042023
:1019A000ADF8000069466048FFF7BCFA10208DF8DA
:1019B00003004002ADF8000069465848FFF7B2FA4C
:1019C00010208DF80300F320ADF80000694655485B
:1019D000FFF7A8FA00224FF400515048FFF744FBEC
:1019E0006846FFF763FFFFF76FFB684600F006F9F4
:1019F000FFF776FBFFF73AFF012211024748FFF796
:101A000033FBFFF755FB494908800020484908701F
:101A1000487188704870FFF743FA142245494648D8
:101A2000FFF734FA4448807CFF2828D1022042493D
:101A300008704FF4C870488028204870DC20487136
:101A400040F2E930C8804FF42570088140F23F1021
:101A5000488150208881AB20C8814FF49B70088258
:101A600004200871AA208874062031494870314842
:101A7000FFF7F0F914222F492F48FFF71DFA40F223
:101A80001F302D49C8804FF4E570088176204881C9
:101A90003EE02A4800F056F8FFF750FBFEF796FCB0
:101AA000FEF714FD24492248FFF762F8204A224934
:101AB0002248FFF7E7F81E48FEF7FAFF1C48FEF73A
:101AC00049FE1D491A48FEF75BFD19491B48FFF7FF
:101AD00023F8174A18491948FEF7B0FD1448FEF7D5
:101AE000C5FC13491548FEF733FD134A1449134842
:101AF000FEF7EEFE0E4B104A1149104800F0F8F8C0
:101B00000F4B0B4A0C490D48FEF7B6FBFFF7B0FB35
:101B1000BFE700000010024000000140001001403B
:101B2000000C0140000801400014014002000020A8
:101B3000BC00002000FC0108C800002016000020A6
:101B4000DC00002070B5044629480088012849DDE2
:101B500000224FF400512748FFF786FA002621E0C3
:101B600000224FF480412348FFF77EFA4FF40041F2
:101B70002048FFF762FA10B145F0010502E04FF688
:101B8000FE7005404FF6FF7000EA4505C820FFF7DC
:101B900061FE012291031748FFF766FAC820FFF79C
:101BA00059FE761C102EDBDB012251031148FFF792
:101BB0005BFA0020E07005F0060008B9A809208053
:101BC000A07805F03F010843A0704FF480710A48E7
:101BD000FFF733FA10B90020A070207100200449EB
:101BE000088004E002480088401C0149088070BD5C
:101BF00028000020000C01400008014010B50446F8
:101C0000012144F20400FFF75BFB0220A0700002F8
:101C100020801820E07021461A48FFF783F94FF41E
:101C2000806020800420E07021461648FFF77AF992
:101C30004FF416501449086000208880C88008813D
:101C400088810C2048811148FFF768FD012240F28D
:101C500025510E48FFF73DFD01210C48FFF7F6FC2A
:101C60002520002809DB00F01F02012191404209D4
:101C7000920002F1E022C2F8001100BF00200449E6
:101C8000087010BD00080140F0000020003801403D
:101C90006200002010B50246002009E0064B1B5CE4
:101CA0001354064B1B785B1E044C2370431CD8B2A4
:101CB0008842F3DB10BD000000010020620000201C
:101CC00070B505460E4600240CE000BF8021074891
:101CD000FFF7C8FC0028F9D0295D0448FFF78FFD05
:101CE000601CC4B2B442F0DB70BD0000003801409B
:101CF0002DE9F04105460C4616461F4601221146C5
:101D00003048FFF7B1F9B4F90400082842D2DFE8FF
:101D100000F0040C141C242C343D00206080288822
:101D20000421FEF7F5FAE08034E028880421FEF76C
:101D3000EFFAE080092060802CE028880421FEF77B
:101D4000E7FAE0800620608024E028880421FEF77E
:101D5000DFFAE080032060801CE028880721FEF77E
:101D6000D7FAE0800520608014E028880721FEF77C
:101D7000CFFAE080042060800CE028880421FEF780
:101D8000C7FAE08000206080E08003E000206080EF
:101D9000E08000BF00BFE088012801D10020608002
:101DA0000948FFF753F94FF63F010840208020888B
:101DB000618840EA8110608061880348FFF752F92A
:101DC000BDE8F081000C014000100140EC1D00084E
:101DD00000000020BC0000005C010008A81E0008F4
:101DE000BC000020E40600007801000800000000AC
:101DF00000000000000000000000000041000000A2
:101E000000000000000000000000000000000000D2
:101E100000000000000000000000000000000000C2
:101E200000000000000000010000010000000000B0
:101E300000000000000000000000000000000000A2
:101E40000000000000000000000000000000000092
:101E5000000000000000000053544D333200000029
:101E60000000000000000000000000000000000072
:101E70000000000000000000000000000000000062
:101E80000000000000000000000000000000000052
:101E9000000000000000000001020304010203042E
:081EA000060708090204060808
:04000005080001BD31
:00000001FF
