S32508000000D8060020BD010008C5010008C7010008C9010008CB010008CD01000800000000F4
S32508000020000000000000000000000000CF010008D101000800000000D3010008D501000846
S32508000040D7010008D7010008D7010008D7010008D7010008D7010008D7010008D701000892
S32508000060D7010008D7010008D7010008D7010008D7010008D7010008D7010008D701000872
S32508000080D7010008D7010008D701000800000000000000000000000000000000D7010008D2
S325080000A0D7010008D7010008D7010008D7010008D7010008D7010008D7010008D701000832
S325080000C0D7010008D7010008D7010008D7010008D7010008D7010008D7010008D701000812
S325080000E0D7010008D7010008D7010008000000000000000000000000000000000000000052
S32508000100000000000000000000000000000000000000000000000000690C0008D701000874
S3250800012000F002F800F03AF80AA090E8000C82448344AAF10107DA4501D100F02FF8AFF29E
S32508000140090EBAE80F0013F0010F18BFFB1A43F00103184790110000B0110000103A24BFA5
S3250800016078C878C1FAD8520724BF30C830C144BF04680C60704700000023002400250026DD
S32508000180103A28BF78C1FBD8520728BF30C148BF0B6070471FB51FBD10B510BD00F031F85F
S325080001A01146FFF7F7FF00F003FF00F04FF803B4FFF7F2FF03BC00F057F800000948804711
S325080001C009480047FEE7FEE7FEE7FEE7FEE7FEE7FEE7FEE7FEE7FEE704480549054A064B4D
S325080001E070470000050C000821010008D8000020D8060020D8020020D8020020704770479F
S325080002007047754600F02CF8AE4605006946534620F00700854618B020B5FFF7DDFFBDE813
S3250800022020404FF000064FF000074FF000084FF0000B21F00701AC46ACE8C009ACE8C0096F
S32508000240ACE8C009ACE8C0098D46704710B50446AFF300802046BDE81040FFF7A8BF000063
S32508000260004870477800002001491820ABBEFEE7260002007047000010B50446314800782A
S32508000280012802D002284BD13EE0207818B102202C49087037E0A07830B1012810D002283E
S325080002A01ED003282ED12CE0207900F0030030B102202449087000F0F1FA2349088021E0C8
S325080002C0207900F0C00050B9207900F00F0030B102201C49087000F0E1FA1B49088011E09E
S325080002E0207900F0C000C0280AD1207900F00F0030B102201349087000F0D0FA12490880D8
S3250800030000E000BF00BF0BE000F0C8FA0E490988401A80B2282802DD01200A49087000BF86
S3250800032000BF08480078022805D101221146074800F09CFA04E000220121044800F096FAE5
S3250800034010BD000032000020340000200008014070B50446002549480078012802D0022811
S325080003603FD12FE0207840B10520454908704549087002204149087023E0E07840B1062000
S325080003803F4908703F49087002203C49087018E0A078A8B1012039490870A07800F00100A3
S325080003A010B145F0020501E045F00105A07800F0020010B145F0080503E045F0040500E008
S325080003C005250EE0207808B9E07830B12D4800782B49097800EA010502E0012027490870A8
S325080003E000BF00BF00F05AFA27490988401A80B23C2809DD2248007880F00F002049087014
S3250800040000F04CFA2049088005F0010028B1012210211E4800F02AFA04E0002210211B4870
S3250800042000F024FA05F0020028B101222021174800F01CFA04E000222021144800F016FA64
S3250800044005F0040028B101224021104800F00EFA04E0002240210D4800F008FA05F008003D
S3250800046028B101228021094800F000FA04E000228021064800F0FAF970BD00002E00002043
S325080004802C0000202D0000203000002000080140417801F0070181B1817841F0010181701B
S325080004A0417801F0040161B1417801F0300141B1817801F0FE01817003E0817801F0FE01FA
S325080004C08170417801F0700181B1817841F002018170417801F0400161B1417801F0030107
S325080004E041B1817801F0FD01817003E0817801F0FD0181707047000010B50446012000F090
S32508000500C1F988B300F0B8F9012806D0032815D0042818D006282DD127E0607800F0040015
S3250800052018B9607880F001006070607820F01600607000F0B3F91B4908801BE0607880F02A
S325080005400400607016E0607800F0400018B9607880F010006070607820F06100607000F0B9
S325080005609DF91049088005E005E0607880F04000607000BF00BF042000F084F918B1607824
S3250800058020F01100607000F089F906490988401A80B2B0F5C87F03DD607820F011006070E9
S325080005A010BD0000260000202DE9F04107460C461546287900F08000A8803A8811B2E288B1
S325080005C010B200F073FCE17888420DDA3A8811B2E28810B200F06AFCE1784942884203DD4D
S325080005E0E08800B24F4908803A8811B2228910B200F05CFCE17888420DDA3A8811B222893F
S3250800060010B200F053FCE1784942884203DD208900B2444908803A8811B2628910B200F0AB
S3250800062045FCE17888420DDA3A8811B2628910B200F03CFCE1784942884203DD608900B2DE
S3250800064038490880388801B23748B0F9000000F02DFC064616F1040F08DAB5F9040040F0A5
S325080006608000A880388800B22F490880042E07DD287900F07F00A880388800B22A49088097
S32508000680388801B22748B0F9000000F00FFC0646002E04DAB5F9040040F04000A88020798B
S325080006A0B04203DB20794042B04202DD042000F043FA208AB04203DB208A4042B04206DDA4
S325080006C0B5F9040040F00800A880BDE8F081E089B04203DBE0894042B04205DDB5F904003A
S325080006E040F00400A880F0E7A089B04203DBA0894042B04205DDB5F9040040F00200A88035
S32508000700E3E7E078B04203DBE0784042B04205DDB5F9040040F00100A880D6E70020A8801B
S3250800072000BFD2E7280000202A0000202DE9F041024600250026002000230024002791F8B0
S3250800074003C00CF00F0591F803C00CF0100CBCF1000F03D091F802C04CEA050591F800C0F1
S32508000760BCF1000F31D0146800202BE04FF0010C0CFA00F3B1F800C00CEA03069E4220D189
S3250800078083004FF00F0C0CFA03F7BC4305FA03FC4CEA040491F803C0BCF1280F06D14FF0ED
S325080007A0010C0CFA00FCC2F814C00AE091F803C0BCF1480F05D14FF0010C0CFA00FCC2F876
S325080007C010C0401C0828D1D31460B1F800C0BCF1FF0F34DD546800202EE000F1080C4FF034
S325080007E0010808FA0CF3B1F800C00CEA03069E4221D183004FF00F0C0CFA03F7BC4305FACC
S3250800080003FC4CEA040491F803C0BCF1280F05D100F1080C08FA0CF8C2F8148091F803C0E2
S32508000820BCF1480F07D100F1080C4FF0010808FA0CF8C2F81080401C0828CED35460BDE8AB
S32508000840F0810246002093680B400BB1012000E00020704741617047016170474FF6FF71B0
S325080008600180022181700421C17070470AB1016100E04161704700000148007870470000FA
S325080008802000002001460448405C022801D1012070470020FCE700006E00002001480088A5
S325080008A0704700001E000020002004E00021034A1154411CC8B20A28F8DB70476E0000203D
S325080008C00EB50121102000F0ADF8684600F05CFA45F6C050ADF800000820ADF804006946FC
S325080008E00D4800F0FFF901210B4800F0D4F93620002809DB00F01F02012191404209920038
S3250800090002F1E022C2F8001100BF01221146024800F0DEF90EBD00000010004010B54FF49C
S3250800092080512F48FFF78DFF84004FF400612C48FFF787FF44EA40044FF480712848FFF7BB
S3250800094080FF044327490C700846017807208843244908702448007830B1012814D002283D
S325080009601DD0032839D12BE01E48007800280ADD1C4800781D490870FFF790FF1C49088023
S3250800098001201949087028E0FFF788FF18490988401A032802DD0220134908701DE0114827
S325080009A0007812490978884206D1012000F0C4F803200D49087002E000200B4908700CE0BC
S325080009C00848007809490978884203D103200649087002E000200449087000BF10BD000093
S325080009E0000801402000002022000020210000202400002000200FE00949095C022902D1D5
S32508000A000021074A11540649095C012902D10221034A1154411CC8B20A28EDDB70470000E3
S32508000A206E00002029B1064AD2690243044BDA6104E0034AD2698243014BDA617047000077
S32508000A400010024029B1064A92690243044B9A6104E0034A92698243014B9A617047000093
S32508000A600010024070B5002100230024002200252C4E766806F00C0121B1042905D00829E2
S32508000A8021D105E0284E066020E0274E06601DE0244E766806F47013224E766806F48034F4
S32508000AA0022606EB93431CB9204E5E43066009E01C4EF66A06F00F06751C1B4EB6FBF5F69B
S32508000AC05E43066002E0184E066000BF00BF154E766806F0F0010909154E725C0668D640E6
S32508000AE04660104E766806F4E061090A104E725C4668D64086600B4E766806F46051C90A2D
S32508000B000B4E725C4668D640C660064E766806F44041890B074E725CC668B6FBF2F6066124
S32508000B2070BD00000010024000127A0000093D0036000020460000200121014A1154704711
S32508000B406E00002010B500F001F810BD0CB50020019000902A48006840F4803028490860E5
S32508000B6000BF2748006800F4003000900198401C0190009818B90198B0F5A06FF1D12048B7
S32508000B80006800F4003010B10120009001E0002000900098012831D11948406818494860E3
S32508000BA00846406848600846406848600846406820F47C1048600846406840F49810486033
S32508000BC00846006840F08070086000BF0C48006800F000700028F9D00948406820F00300F1
S32508000BE0074948600846406840F00200486000BF0348406800F00C000828F9D10CBD0000AE
S32508000C000010024010B51448006840F001001249086008464068114908400F494860084611
S32508000C2000680F4908400C4908600846006820F4802008600846406820F4FE0048604FF41C
S32508000C401F0088600020C862FFF77CFF4FF000600449086010BD0000001002400000FFF85A
S32508000C60FFFFF6FE08ED00E010B50121064800F01EF840B10121044800F00AF80348008840
S32508000C80401C0249088010BD001000401E000020CA430282704721B1028842F00102028061
S32508000CA004E002884FF6FE731A400280704730B50246002000230024158A05EA010395892B
S32508000CC005EA010413B10CB1012000E0002030BD1AB183890B43838102E083898B4383819A
S32508000CE070470000002202881D4B98420ED01D4B98420BD0B0F1804F08D01B4B984205D0E9
S32508000D001A4B984202D01A4B984204D14FF68F731A404B881A43174B984207D0164B984281
S32508000D2004D04FF6FF431A40CB881A4302808B8883850B8803850A4B98420BD0094B984250
S32508000D4008D00E4B984205D00D4B984202D00D4B984201D10B7A03860123838270470000AF
S32508000D60002C0140003401400004004000080040000C004000100040001400400040014086
S32508000D8000440140004801404FF6FF71818000210180C18041800172704721B1828942F4A0
S32508000DA00052828104E082894DF6FF731A408281704702460020B1F5007F00D100BF138860
S32508000DC00B400BB1012000E0002070472DE9F04786B005460E460024A24600BFA14600272B
S32508000DE0B08900B100BF2F462C8A4CF6FF700440F08804432C82AC894EF6F3100440B088B7
S32508000E0031890843718908430443AC81AC8A4FF6FF400440B0890443AC8201A8FFF722FE9B
S32508000E201F48874202D1DDF810A001E0DDF80CA0A88900F4004040B10AEBCA0000EB0A10A0
S32508000E4031684900B0FBF1F807E00AEBCA0000EB0A1031688900B0FBF1F86420B8FBF0F096
S32508000E6004012009642101FB1089A88900F4004040B1322000EBC900B0FBF1F000F007003D
S32508000E80044308E0322000EB09106421B0FBF1F000F00F0004432C8106B0BDE8F0870000E9
S32508000EA000380140C1F30802828070470246881AB0F5007F04DD881AA0F5806000B27047C5
S32508000EC0881A10F5007F04DA881A00F5806000B2F5E7881A00B2F2E700E0401E0028FCD19B
S32508000EE07047000010B5012144F20400FFF7AAFD022012498870000208801820C8701048A8
S32508000F00FFF714FC4FF480600C4908800420C8700B48FFF70BFC4FF416500A49086000208D
S32508000F208880C880088188810C2048810648FFF74DFF01210448FFF730FF10BD10000020AC
S32508000F40000801404C0000200038014010B50220154988704820C8704FF400400880134812
S32508000F60FFF7E4FB0220104988701420C8704FF4804008800D48FFF7D9FB02200A49887098
S32508000F801420C8704FF4005008800848FFF7CEFB012251030548FFF769FC0122910303488C
S32508000FA0FFF764FC10BD000010000020000C014008B58248806940F0010080498861804868
S32508000FC0406840F000707E49486001213C20FFF739FD6846FFF742FC02208DF802001020E7
S32508000FE08DF803004FF44070ADF8000069467548FFF79CFB10208DF803001C20ADF8000031
S3250800100069467148FFF792FB48208DF803004FF41940ADF8000069466C48FFF787FB482063
S325080010208DF803004FF47070ADF8000069466648FFF77CFB48208DF803000420ADF80000CF
S3250800104069466348FFF772FB10208DF803004002ADF8000069465B48FFF768FB10208DF8C6
S325080010600300F320ADF8000069465848FFF75EFB00224FF400515348FFF7F8FBFFF766FF74
S32508001080FFF712FC012211024E48FFF7EFFBFFF729FFFFF715FCFFF701FC4E490880FFF765
S325080010A0FDFB4D490880FFF7F9FB4C490880DC204B49087140F21D20C8804FF45C700881AD
S325080010C0C720488150208881AB20C8814FF49B7008820820C870002042490870C8706CE0E6
S325080010E0414800F087F8FFF719FC3E48FFF704FA3C4A3B493C48FFF757FA3A48FFF7C8F957
S325080011003848FFF725F93748FFF7B6F82F480830006800F4004028B14FF400712948FFF7CB
S325080011209BFB04E04FF400712648FFF793FBFFF7B5FB28490988401A80B2642822DD2B484F
S32508001140006850B1012211021E48FFF78FFB012204211D48FFF78AFB0AE000224FF4807194
S325080011601848FFF783FB002204211748FFF77EFB1E480068C0F101001C490860FFF78EFBAC
S3250800118014490880FFF78AFB13490988401A80B2282810DD14488178154800F077F80D21EC
S325080011A0134800F063F80A21114800F05FF8FFF775FB09490880FFF71DFC91E70010024097
S325080011C00000014000100140000C014000080140001401400000002002000020040000201E
S325080011E05C0000201800002014000020080000200038014070B5054600224FF400511A48D0
S32508001200FFF734FB002621E000224FF480411648FFF72CFB4FF400411348FFF712FB10B130
S3250800122044F0010402E04FF6FE7004404FF6FF7000EA44041420FFF74FFE012291030A4828
S32508001240FFF714FB1420FFF747FE761C102EDBDB012251030448FFF709FBA009288004F084
S325080012603F00A87070BD0000000C014070B504460D4600BF80212046FFF79BFD0028F9D088
S3250800128029462046FFF70EFE70BD00002DE9F04107460C46124D4FF00008002C04DA2D2158
S325080012A03846FFF7E3FF644200BFB4FBF5F005FB10440A20B5FBF0F5B4FBF5F0C6B20EB1F3
S325080012C04FF00108B8F1010F05D106F13000C1B23846FFF7CBFF012DE7D8BDE8F08100004E
S325080012E08096980004130008000000204C0000005C010008501300084C0000208C060000D9
S3250800130078010008000000000000000000000000000000000000000000000000000000003E
S3250800132000000000000000000000000000000000000001000000010000000000000001029A
S3250800134003040102030406070809020406080000FFFFFFFFFFFFFFFFFFFFFFFFFFFFFFFF4C
S32508001360FFFFFFFFFFFFFFFFFFFFFFFFFFFFFFFFFFFFFFFFFFFFFFFFFFFFFFFFFFFFFFFF7F
S32508001380FFFFFFFFFFFFFFFFFFFFFFFFFFFFFFFFFFFFFFFFFFFFFFFFFFFFFFFFFFFFFFFF5F
S325080013A0FFFFFFFFFFFFFFFFFFFFFFFFFFFFFFFFFFFFFFFFFFFFFFFFFFFFFFFFFFFFFFFF3F
S325080013C0FFFFFFFFFFFFFFFFFFFFFFFFFFFFFFFFFFFFFFFFFFFFFFFFFFFFFFFFFFFFFFFF1F
